:100000000C94A8020C94E6040C94BF040C94D00247
:100010000C94D0020C94D0020C94750A0C94D0026B
:100020000C94D0020C94D0020C94D0020C94D00208
:100030000C94D0020C94D0020C94D0020C94D002F8
:100040000C9421120C94D0020C9498060C94720615
:100050000C94D0020C94D0020C94D0020C94D002D8
:100060000C9429080C94D0028D1A1B1A3C1A8B1A76
:100070008B1A481A4D1A8B1A0E1A8B1A8B1A8B1A56
:100080008B1A8B1A8B1A581A6A1A8B1A8D1A8B1A9A
:100090008B1A751A737461727475702E2E2E004F40
:1000A00070656E456E657267794D6F6E69746F72BB
:1000B0002E6F726700656D6F6E50692056004F702D
:1000C000656E456E657267794D6F6E00656D6F6E1A
:1000D0005069205600204E6574776F726B2000398E
:1000E00031354D687A003836384D687A003433330C
:1000F0004D687A00204672657120004E6F6465205D
:100100000052464D3639435720496E69743A2000F3
:10011000506C65617365207761697400426F6F741C
:10012000696E672E2E2E00445331384232302054EF
:10013000656D700044657465637465643A200030D1
:1001400020445331384232302064657465637465ED
:100150006400445331384232302054656D7000449D
:10016000657465637465643A2000204453313842F5
:100170003230004465746563742000204354277353
:10018000004E6F2043542773006E6F204354206449
:10019000657465637465640044657465637465645F
:1001A00020005600417373756D696E672056524D7D
:1001B000533A2000555341206D6F64650041432040
:1001C0004E4F54206465746563746564202D20412E
:1001D00070706172656E7420506F77657220636114
:1001E0006C6320656E61626C6564004143204E4F14
:1001F0005420446574656374656400506861736578
:100200002053686966743A2000560056726D733A3E
:1002100020005663616C3A2000555341206D6F6495
:1002200065203E2000414320576176652044657477
:100230006563746564202D205265616C20506F7772
:1002400065722063616C6320656E61626C65640039
:100250004143205761766520446574656374656425
:1002600000560056524D53204143207E00435420F7
:10027000322043616C3A2000435420312043616CAA
:100280003A20002000205553412000207100204DCD
:10029000487A002040200020670020690020005D8F
:1002A000005B656D6F6E50692E00005EBCE2613FC1
:1002B000DD83C29C7E20A3FD1F41009D23BE46DB43
:1002C00065F88C11AF32CA57E974010402000302C9
:1002D000048A050506C30B2019421E2C25802E8892
:1002E0002F2D370038003C8F3D106F20000A4176DB
:1002F00061696C61626C6520636F6D6D616E6473C2
:100300003A0A20203C6E6E3E206920202020202DBD
:1003100020736574206E6F646520494473202873D0
:1003200074616E64617264206E6F646520696473C9
:100330002061726520312E2E3330290A20203C6E38
:100340003E20622020202020202D20736574204D27
:10035000487A2062616E64202834203D2034333393
:100360002C2038203D203836382C2039203D2039AB
:100370003135290A20203C6E6E6E3E2067202020F9
:10038000202D20736574206E6574776F726B206703
:10039000726F7570202852464D3132206F6E6C7925
:1003A00020616C6C6F7773203231322C2030203D0D
:1003B00020616E79290A20203C6E3E206320202097
:1003C0002020202D2073657420636F6C6C6563742E
:1003D000206D6F64652028616476616E6365642CAE
:1003E000206E6F726D616C6C792030290A20202E8E
:1003F0002E2E2C3C6E6E3E2061202D2073656E6487
:100400002064617461207061636B657420746F2077
:100410006E6F6465203C6E6E3E2C20726571756552
:1004200073742061636B0A20202E2E2E2C3C6E6E7E
:100430003E2073202D2073656E64206461746120FA
:100440007061636B657420746F206E6F6465203C0F
:100450006E6E3E2C206E6F2061636B0A20202E2E64
:100460002E2C3C6E3E207020202D205365742041A0
:10047000432041646170746572205663616C203161
:1004800070203D20554B2C203270203D205553418B
:100490000A202076202020202020202020202D200F
:1004A00053686F77206669726D7761726520766533
:1004B0007273696F6E0A20203C6E3E2071202020EE
:1004C0002020202D20736574207175696574206D5E
:1004D0006F6465202831203D20646F6E2774207280
:1004E00065706F727420626164207061636B657403
:1004F00073290A00000000002300260029000404DC
:1005000004040404040402020202020203030303BB
:100510000303010204081020408001020408102097
:1005200001020408102000000000240027002A0017
:1005300000000000250028002B0000000008000239
:100540000100000304070000000000000000451C3B
:1005500011241FBECFEFD8E0DEBFCDBF11E0A0E079
:10056000B1E0EEEEFFE302C005900D92A23CB107B0
:10057000D9F725E0A2ECB1E001C01D92A831B20785
:10058000E1F712E0C8EAD2E004C02197FE010E9420
:100590002A1DC73AD107C9F70E946B120C94F51FA8
:1005A0000C9400000895CF92DF92EF92FF920F9388
:1005B0001F93CF93DF936C017A018B01C0E0D0E0F1
:1005C000CE15DF0581F0D8016D918D01D601ED9139
:1005D000FC910190F081E02DC6010995892B11F065
:1005E0002196EECF7E01C701DF91CF911F910F9130
:1005F000FF90EF90DF90CF900895FC01538D448DD4
:10060000252F30E0842F90E0821B930B541710F0BD
:10061000CF96089501970895FC01918D828D9817CA
:1006200061F0828DDF01A80FB11D5D968C91928DD6
:100630009F5F9F73928F90E008958FEF9FEF0895D3
:10064000FC01918D828D981731F0828DE80FF11D9C
:10065000858D90E008958FEF9FEF0895FC01918DB7
:10066000228D892F90E0805C9F4F821B91098F73B0
:100670009927089585E394E00E942E0321E0892BB9
:1006800009F420E0822F0895FC01848DDF01A80F7A
:10069000B11DA35ABF4F2C91848D90E001968F73AA
:1006A0009927848FA689B7892C93A089B1898C91C9
:1006B000837080648C93938D848D981306C0028818
:1006C000F389E02D80818F7D80830895EF92FF92E2
:1006D0000F931F93CF93DF93EC0181E0888F9B8D65
:1006E0008C8D981305C0E889F989808185FD26C025
:1006F000F62E0B8D10E00F5F1F4F0F731127E02EAA
:100700008C8DE8120CC00FB607FCFACFE889F98986
:10071000808185FFF5CFCE010E944403F1CF8B8D00
:10072000FE01E80FF11DE35AFF4FF0829FB7F894E6
:100730000B8FEA89FB89808180620AC09FB7F89499
:10074000EE89FF896083E889F989808183708064FC
:1007500080839FBF81E090E0DF91CF911F910F9147
:10076000FF90EF900895CF93DF93EC01888D88235D
:10077000C9F0EA89FB89808185FD05C0A889B9890E
:100780008C9186FD0FC00FB607FCF5CF808185FFE9
:10079000F2CFA889B9898C9185FFEDCFCE010E9457
:1007A0004403E7CFDF91CF91089580E090E0892B5B
:1007B00029F00E943A0381110C94000008954091A1
:1007C000BF03262F30E0240F311D21323105DCF428
:1007D000209108042430C9F4FC0180E090E08617E1
:1007E00058F43091BF032191DC01A156BC4FA30FF7
:1007F000B11D2C930196F3CF8091BF03680F6093D6
:10080000BF0380E0089581E0089582E0089508958F
:1008100008950895E091140280911302E81730F4CE
:10082000F0E0E258FC4F808190E008958FEF9FEF59
:1008300008959091140280911302981750F4E92FB3
:10084000F0E0E258FC4F208130E09F5F909314026B
:1008500002C02FEF3FEFC90108958091130290E08D
:1008600020911402821B91090895CF92DF92EF929A
:10087000FF920F931F93CF93DF937C01CB018A01EB
:1008800020910E04222389F0EB016B01C40ED51ECA
:10089000CC15DD0569F06991D701ED91FC910190CE
:1008A000F081E02DC7010995F3CF642F0E94DF038B
:1008B000C801DF91CF911F910F91FF90EF90DF90D2
:1008C000CF900895CF93DF931F92CDB7DEB76983A2
:1008D00020910E042223D1F020913104203240F0E7
:1008E00021E030E0FC013383228380E090E015C0FA
:1008F00080910F04E82FF0E0E05FFB4F9981908337
:100900008F5F80930F048093310405C061E0CE01B6
:1009100001960E94DF0381E090E00F90DF91CF917C
:100920000895089580E090E008950E94F01F0F93CD
:100930001F930E94530F00917A0310917B03209123
:100940007C0330917D03DC01CB01801B910BA20B5A
:10095000B30BCD97A105B10528F0809179038F5F86
:10096000809379030E94530F60937A0370937B0303
:1009700080937C0390937D031F910F9108951F92A4
:100980000F920FB60F9211242F933F934F935F93C3
:100990006F937F938F939F93AF93BF93EF93FF9347
:1009A000E0910E01F0910F010995FF91EF91BF9138
:1009B000AF919F918F917F916F915F914F913F91F7
:1009C0002F910F900FBE0F901F9018951F920F92AE
:1009D0000FB60F9211242F933F934F935F936F9312
:1009E0007F938F939F93AF93BF93EF93FF93E09188
:1009F0000C01F0910D010995FF91EF91BF91AF911D
:100A00009F918F917F916F915F914F913F912F9126
:100A10000F900FBE0F901F901895DC01ED91FC9187
:100A20000190F081E02D0994EF92FF920F931F93B4
:100A3000CF93DF938C017B01C0E0D0E0F701EC0F96
:100A4000FD1F6491662361F0D801ED91FC91019046
:100A5000F081E02DC8010995892B11F02196EECF88
:100A6000CE01DF91CF911F910F91FF90EF900895EC
:100A70006115710579F0FB0101900020E9F73197CC
:100A8000AF01461B570BDC01ED91FC910280F38115
:100A9000E02D099480E090E008958F929F92AF92AC
:100AA000BF92EF92FF920F931F93CF93DF93CDB737
:100AB000DEB7A1970FB6F894DEBF0FBECDBF7C01A5
:100AC000FA01CB0119A2223008F42AE08E010F5D51
:100AD0001F4F822E912CA12CB12CBF01A501940196
:100AE0000E94E91CF901CA01015011096A3014F48D
:100AF000605D01C0695CD8016C93232B242B252BEE
:100B000061F7B801C7010E943805A1960FB6F894A5
:100B1000DEBF0FBECDBFDF91CF911F910F91FF9030
:100B2000EF90BF90AF909F908F9008957F928F929B
:100B30009F92AF92BF92CF92DF92EF92FF920F936C
:100B40001F93CF93DF938C016A017B01722E9A0170
:100B5000AB01C701B6010E94D61F882319F063EBD1
:100B600071E027C046015701E894B7F82FEF3FEF37
:100B70004FE75FE7C501B4010E94D61F81110DC088
:100B80002FEF3FEF4FE75FE7C501B4010E94C61D9D
:100B900018161CF467EB71E00CC02FEF3FEF4FE726
:100BA0005FE4C701B6010E941E1F181694F46BEB98
:100BB00071E0C801DF91CF911F910F91FF90EF90ED
:100BC000DF90CF90BF90AF909F908F907F900C94CC
:100BD00038052FEF3FEF4FE75FECC701B6010E94EA
:100BE000C61D87FDE4CF20E030E0A901C701B601B2
:100BF0000E94C61D87FF0AC06DE2C8010E940D0554
:100C0000EC01F7FAF094F7F8F09402C0C0E0D0E0FD
:100C1000B12C60E070E080E09FE37B1441F020E0C5
:100C200030E040E251E40E94CB1DB394F6CFA7011F
:100C300096010E945A1D6B017C010E943D1E4B01D2
:100C40005C012AE0AB01BC01C8010E944D05C80F40
:100C5000D91F7720C1F1C501B4010E946C1E9B0110
:100C6000AC01C701B6010E94591D6B017C016EE207
:100C7000C8010E940D05C80FD91F20E030E040E2F6
:100C800051E4C701B6010E94231F4B015C010E9481
:100C90003D1E6B01E12CF12C2AE0B701A601C80131
:100CA0000E944D05C80FD91FC701B6010E946C1ED6
:100CB0009B01AC01C501B4010E94591D6B017C016F
:100CC0007A947110DACFCE01DF91CF911F910F91FD
:100CD000FF90EF90DF90CF90BF90AF909F908F905C
:100CE0007F9008951F920F920FB60F9211242F93A9
:100CF0003F934F935F936F937F938F939F93AF93A4
:100D0000BF93EF93FF9385E394E00E944403FF9128
:100D1000EF91BF91AF919F918F917F916F915F9173
:100D20004F913F912F910F900FBE0F901F901895EC
:100D30001F920F920FB60F9211242F938F939F93B0
:100D4000EF93FF93E0914504F09146048081E09198
:100D50004B04F0914C0482FD12C0908180914E04AE
:100D60008F5F8F7320914F04821751F0E0914E04F2
:100D7000F0E0EB5CFB4F958F80934E0401C08081C7
:100D8000FF91EF919F918F912F910F900FBE0F9038
:100D90001F901895E8982A988EBD0DB407FEFDCFD8
:100DA0008EB56EBD0DB407FEFDCF8EB52A9AE89ABA
:100DB000089560E00C94CA06CF93C82F81E00E948A
:100DC000D906837E682F6C2B81E8CF910C94CA06DC
:100DD00088E20E94D906807521F080E00E94D90641
:100DE000F7CF08958627682F62956827062E6695A7
:100DF00066956025062E669560256770082E892FFA
:100E0000669507946795902D86270694679590259B
:100E10008627089580913204853009F04BC060E444
:100E200085EA0E94CA0684E20E94D906789488E284
:100E30000E94D9068075D9F380910E0281110FC0EE
:100E4000E091C201F091C30180910E0291E0980FF0
:100E500090930E0290913404E80FF11D908380E08E
:100E60000E94D906E091C201F091C30190910E0257
:100E700021E0290F20930E02E90FF11D8083682FD6
:100E80008091C4019091C5010E94F2069093C50122
:100E90008093C4018091C80120910E0290E00496D5
:100EA00030E082179307A4F080910E02883408F492
:100EB000BECF089588E20E94D90683FF09C084E06E
:100EC000809332040E94DC0660E885EA0C94CA062E
:100ED0000895FC01248131E030930E042093300406
:100EE00010920F04109231048385682B82ED94E0F8
:100EF0000E9462040C94C10B0F931F93CF938C013B
:100F0000C62F0E9469076C2F6460C8010E946907A0
:100F10006C2F6B7FC8010E94690783EC90E00197FA
:100F2000F1F7CF911F910F9108950F931F93CF93D6
:100F3000DF938C01C62FD42F607F642B0E947C0727
:100F400080E1C89FB00111246D2BC801DF91CF91C2
:100F50001F910F910C947C0741E00E94950781E05E
:100F600090E008951092080481E0809307041092A5
:100F7000E20361E082E10E94720E61E083E10E947F
:100F8000720EE9EBF0E080818E7F808380818D7F1F
:100F9000808388E48093B80085E48093BC00089542
:100FA000CF93DF9391E090939E038823B9F0C09193
:100FB000B800D091BA008091BC008A7B8093BC00BD
:100FC00060E082E10E94720E60E083E10E94720E96
:100FD0000E94B207D093BA00C093B800DF91CF91BE
:100FE000089585ED8093BC0080910A0490910B04D4
:100FF000A0910C04B0910D040796A11DB11D23E032
:10100000B695A795979587952A95D1F72091BC001D
:1010100024FF1CC040910A0450910B0460910C0401
:1010200070910D04452B462B472B81F30097A105AA
:10103000B10541F025E32A95F1F700000197A109D8
:10104000B109E4CF809109040C94D00710920804F0
:1010500008951F920F920FB60F9211242F933F9372
:101060004F935F936F937F938F939F93AF93BF93B0
:10107000EF93FF938091B900887F803609F49CC07C
:1010800068F5883209F45BC090F4803109F454C0EB
:1010900038F4882309F4F6C0883009F44DC0F6C04E
:1010A000883109F44CC0803209F45DC0EFC080344F
:1010B00009F468C048F4803309F455C0883309F056
:1010C000E5C080930604D8C0803509F44FC0883548
:1010D00009F45DC0883409F0D9C0D6C0883909F454
:1010E000C7C0A8F4883709F467C038F4883609F413
:1010F00063C0803709F460C0C9C0883809F4B8C03B
:10110000803909F45FC0803809F0C0C05BC0803B03
:1011100009F486C038F4803A09F466C0883A09F4C4
:101120007FC0B4C0803C09F4A7C0883C09F4A4C0C7
:10113000883B09F48AC0AAC08091E30310C0909153
:10114000050480910404981770F5E091050481E08E
:101150008E0F80930504F0E0EC51FC4F808180936A
:10116000BB0085EC86C0809306048EC0E091050428
:1011700081E08E0F809305048091BB00F0E0EC517C
:10118000FC4F808390910504809104046EC0E0912F
:10119000050481E08E0F809305048091BB00F0E090
:1011A000EC51FC4F80838091070481116DC081E078
:1011B0008093E20384EA61C083E080930804109284
:1011C000E103CFCF8091E103803208F051C0E0917C
:1011D000E10381E08E0F8093E1038091BB00F0E09A
:1011E000EF53FC4F8083BDCF85EC8093BC00109201
:1011F00008048091E103803230F4E091E103F0E0F3
:10120000EF53FC4F10826091E10370E0E091110216
:10121000F091120281EC93E009951092E10336C03F
:1012200084E0809308041092C0031092BF03E09101
:101230000F02F091100209958091BF03811105C042
:1012400081E08093BF0310929F03E091C00381E08F
:101250008E0F8093C003F0E0E156FC4F80818093B5
:10126000BB009091C0038091BF03981708F479CF19
:1012700085E88093BC000AC085EC8093BC00109286
:10128000080404C0109206040E94F107FF91EF9138
:10129000BF91AF919F918F917F916F915F914F918E
:1012A0003F912F910F900FBE0F901F9018958EE4D5
:1012B00080937C0062E070E080E090E00E94190F73
:1012C00080917A00806480937A0080917A0086FD14
:1012D000FCCF809178002091790030E0322F2227D6
:1012E000A901330F660B770B9A01AB01282B60E045
:1012F00070E381E190E00E940B1DCA01B9010895DD
:10130000DC0180E0615098F02D91982F9227E92F11
:10131000EF70F0E0E655FD4F249192959F70E92F14
:10132000F0E0E654FD4FE491822F8E27EBCF089535
:10133000FC0190810180F281E02DF8948181892B5C
:1013400081832281892F809528232283A7E0B0E022
:101350001197F1F7218182238183A3E2B0E01197F5
:10136000F1F780817894EFECF0E03197F1F7982372
:1013700081E009F480E00895FC0190810180F28110
:10138000E02D892F809560FF12C0F894228182237E
:1013900082838181892B8183A3E2B0E01197F1F7E9
:1013A0008281982B9283789487ED90E011C0F89415
:1013B0002281822382838181892B8183AFEFB0E0F8
:1013C0001197F1F78281982B928378948FE090E0C7
:1013D0000197F1F70895DF92EF92FF920F931F9319
:1013E000CF93DF93EC01D62EE42E08E010E0FF242B
:1013F000F39461E08D2D8F2109F460E0CE010E940D
:10140000BC09FF0C01501109A1F7E11010C0F894BC
:10141000E981FA8191818881809589238183E9819D
:10142000FA81928188818095892382837894DF91E3
:10143000CF911F910F91FF90EF90DF900895EF9261
:10144000FF920F931F93CF93DF938C017B0140E0BA
:1014500065E50E94EB09E70188E0E80EF11C69915F
:1014600040E0C8010E94EB09CE15DF05C1F7DF910E
:10147000CF911F910F91FF90EF900895DC012C9177
:101480001196ED91FC911297F8948181922F90958D
:101490008923818378948DE743E050E0815021F1E6
:1014A000DA011197F1F730813223C1F3F894828188
:1014B000892382838181822B81837894ABE7B7E093
:1014C0001197F1F7F89481819823918383E191E05A
:1014D0000197F1F78081282381E009F080E078947A
:1014E000E3E6F6E03197F1F708951F920F920FB6F9
:1014F0000F9211248F93809178038F5F80937803EC
:101500008F910F900FBE0F901F9018951F93CF9340
:10151000DF93CDEED2E0FE011491112371F01A3069
:1015200029F46DE085E394E00E940D05612F85E3C9
:1015300094E00E940D052196EECFDF91CF911F918F
:1015400008956FEB71E085E394E00C943805CF9338
:10155000DF93BC0185E394E00E941405EC010E9436
:10156000A10A8C0F9D1FDF91CF910895CF92DF923A
:10157000EF92FF92CF93DF936115710559F4682FB5
:1015800085E394E0DF91CF91FF90EF90DF90CF90D3
:101590000C9466036C01990FEE08FF086A30710520
:1015A000F9F4F7FE1BC06DE285E394E00E940D059F
:1015B000EC0144275527BA014C195D096E097F09D2
:1015C0002AE085E394E00E944D058C0F9D1FDF917A
:1015D000CF91FF90EF90DF90CF9008952AE001C067
:1015E000262FB701A60185E394E0DF91CF91FF900C
:1015F000EF90DF90CF900C944D05CF92DF92EF9259
:10160000FF920F931F93CF93DF93C82FD42FEFEF49
:10161000E60FE33028F4F0E0E85EFE4FE08101C021
:10162000E0E0A62FB0E020E039E04DE350E00E947A
:101630004E1D6B017C01AE2FB0E020E836E948E991
:1016400050E00E944E1DDC01CB018C0D9D1DAE1D96
:10165000BF1DBC01CD0122E0660F771F881F991FB7
:101660002A95D1F729E03DE340E050E00E94E91CD3
:10167000DA01C90136E0880F991FAA1FBB1F3A95EE
:10168000D1F78093F1049093F204A093F304B09304
:10169000F404D0933404DC2FDF71D093330464E17D
:1016A00070E080E090E00E94190FDD2369F08AE08D
:1016B00097E090930D0180930C0180916900836005
:1016C00080936900E89A07C0E89882ED92E09093D1
:1016D0000D0180930C012A9A229A2A9A84B18C6275
:1016E00084B980E58CBD8DB581608DBD6AEA8FEAD5
:1016F0000E94CA068FE20E94D9068A3AB9F765E5C8
:101700008FEA0E94CA068FE20E94D9068535B9F792
:101710000AEC12E0F8018491882341F0319664913B
:1017200080680E94CA060E5F1F4FF4CF6091340498
:1017300080EB0E94CA06C090F104D090F204E090C1
:10174000F304F090F404B7018827992787E80E94F2
:10175000CA0699278F2D7E2D6D2D88E80E94CA0616
:101760006C2D89E80E94CA0684E0809332048C2F95
:10177000DF91CF911F910F91FF90EF90DF90CF906D
:1017800008958F929F92AF92BF92CF92DF92EF9285
:10179000FF920F931F93CF93DF9310913104113277
:1017A00008F0C2C0D09130040E94F40E6B017C019D
:1017B000C0910804CC2311F180910A0490910B048C
:1017C000A0910C04B0910D04892B8A2B8B2B81F3F3
:1017D0000E94F40E80900A0490900B04A0900C04D8
:1017E000B0900D04DC01CB018C199D09AE09BF0935
:1017F00088169906AA06BB06D8F682C082E08093B6
:10180000080481E0809307048FEF80930604109210
:10181000050410930404A0E1B4E0E4EEF3E080E0FA
:10182000181721F09D9191938F5FFACF1092E303E7
:101830009091E3038D2F880F892B8093E303809190
:10184000E203813089F51092E2030E94F40E6B01ED
:101850007C018091E3038093BB0080910A04909106
:101860000B04A0910C04B0910D04892B8A2B8B2BB7
:10187000A9F00E94F40E00910A0410910B0420912B
:101880000C0430910D04DC01CB018C199D09AE09CB
:10189000BF09081719072A073B0790F18091BC0080
:1018A00083FDD7CF85EC01C085EE8093BC000E94FC
:1018B000F40E6B017C0180910804823039F580912F
:1018C0000A0490910B04A0910C04B0910D04892B93
:1018D0008A2B8B2B81F30E94F40E00910A04109145
:1018E0000B0420910C0430910D04DC01CB018C1908
:1018F0009D09AE09BF09081719072A073B07D8F643
:10190000809109040E94D007C5E013C080910604AD
:101910008F3F79F080910604803241F08091060477
:10192000803331F0C4E005C0C1E003C0C2E001C0B3
:10193000C3E010920F041092310410920E048C2F09
:10194000DF91CF911F910F91FF90EF90DF90CF909B
:10195000BF90AF909F908F900895CF93DF93CDB7B6
:10196000DEB728970FB6F894DEBF0FBECDBF9C013F
:1019700088E0E0E1F1E0DE01119601900D928A9598
:10198000E1F7F9018085811102C09FEF01C091E06C
:10199000FE013196E90FF11DE90FF11D60816068CC
:1019A00040E0C90128960FB6F894DEBF0FBECDBF48
:1019B000DF91CF910C94950740E061E00E9495077C
:1019C0008BE39FE10197F1F70895462F50E060E027
:1019D00070E02AE00C944D05CF93DF93AB01BC017E
:1019E00022E085E394E00E949605EC010E94A10AA2
:1019F0008C0F9D1FDF91CF9108958F929F92AF9290
:101A0000BF92CF92DF92EF92FF920F931F93CF93EB
:101A1000DF938C01EB018091E3049091E4040E9438
:101A20003E0A882309F43DC0B8018091E3049091F7
:101A3000E4040E941F0A40E06EEB8091E304909161
:101A4000E4040E94EB098E015E0189E0A80EB11C3E
:101A50008090E3049090E40488E0C82ED12CF12C0F
:101A6000EE24E394C4010E9498098111FE28EE0C33
:101A7000E1E0CE1AD108B1F7F801F1928F01EA1531
:101A8000FB0531F78091E3049091E4040E943E0A43
:101A9000813039F468E0CE010E94800991E0288508
:101AA000281390E0892FDF91CF911F910F91FF9024
:101AB000EF90DF90CF90BF90AF909F908F90089560
:101AC000CF93DF93CDB7DEB729970FB6F894DEBF7B
:101AD0000FBECDBFFC0120812031D1F0BE016F5F70
:101AE0007F4F0E94FD0C882389F08D818F3361F038
:101AF00020F48F3159F489E00CC08F3519F08F37FD
:101B000039F004C08BE005C08AE003C080E001C06A
:101B10008CE029960FB6F894DEBF0FBECDBFDF91E3
:101B2000CF910895BF92CF92DF92EF92FF920F93E1
:101B30001F93CF93DF93EC016B018D85811105C05D
:101B4000CE010E943E0A811105C01B861D861C869F
:101B500080E060C040E060EFCE010E94EB0901E050
:101B6000E12CB12C11E0CE010E949809F82ECE0193
:101B70000E94980991E0F91203C08130B1F434C099
:101B80002E2D30E0F8121BC08B85181738F4FE019B
:101B9000E20FF31F8381802341F402C0811729F0F3
:101BA000F12C193058F41C8709C0FE01EE0DF11D0F
:101BB0008381802B8383FF24F39409C0B12EFE011F
:101BC000E20FF31F9381802F8095892383836F2DEC
:101BD000CE010E94BC091F5F000F11F4E39401E0E5
:101BE00087E08E1508F0BFCF113408F4AECFBB8666
:101BF000B11002C081E08D878B81882309F4A5CFC5
:101C0000DE011396F6012B968D918193CA17DB079F
:101C1000D9F781E0DF91CF911F910F91FF90EF9065
:101C2000DF90CF90BF900895FF920F931F93CF93B3
:101C3000DF938C01F62EE091E304F091E404138627
:101C400015861486DF011B9633961E92EA17FB0752
:101C5000E1F7C0E0B8018091E3049091E4040E94B0
:101C6000920DD82F882369F0FC1208C067E0C801E4
:101C70000E948009F8019781891721F0CF5FFC1637
:101C800048F7D0E08D2FDF91CF911F910F91FF90FA
:101C90000895833081F028F4813099F08230A1F0EA
:101CA00008958730A9F08830B9F08430D1F480915C
:101CB00080008F7D03C0809180008F7780938000AB
:101CC000089584B58F7702C084B58F7D84BD089553
:101CD0008091B0008F7703C08091B0008F7D80939A
:101CE000B00008951F93CF93DF93282F30E0F901C0
:101CF000E65CFA4F8491F901EE5EFA4FD491F90156
:101D0000E250FB4FC491CC23C1F0162F81110E94E9
:101D1000490EEC2FF0E0EE0FFF1FE05DFA4FA591AA
:101D2000B4919FB7F894111104C08C91D095D82329
:101D300002C0EC91DE2BDC939FBFDF91CF911F910E
:101D40000895CF93DF9390E0FC01EE5EFA4F24916B
:101D5000FC01E250FB4F8491882361F190E0880FF1
:101D6000991FFC01EA5DFA4FC591D491FC01E05D39
:101D7000FA4FA591B491611109C09FB7F894888179
:101D8000209582238883EC912E230BC0623061F46E
:101D90009FB7F8948881322F309583238883EC9104
:101DA0002E2B2C939FBF06C08FB7F894E8812E2B63
:101DB00028838FBFDF91CF9108958E3008F08E5029
:101DC0008770806480937C0080917A008064809327
:101DD0007A0080917A0086FDFCCF80917800209176
:101DE000790090E0922B08953FB7F8948091140504
:101DF00090911505A0911605B091170526B5A89BE1
:101E000005C02F3F19F00196A11DB11D3FBFBA2F8C
:101E1000A92F982F8827820F911DA11DB11DBC01EC
:101E2000CD0142E0660F771F881F991F4A95D1F7B1
:101E300008958F929F92AF92BF92CF92DF92EF92CE
:101E4000FF926B017C010E94F40E4B015C01C114F6
:101E5000D104E104F104F1F00E94F40EDC01CB01A5
:101E600088199909AA09BB09883E9340A105B105C3
:101E700070F321E0C21AD108E108F10888EE880E5B
:101E800083E0981EA11CB11CC114D104E104F1042B
:101E900019F7DDCFFF90EF90DF90CF90BF90AF901C
:101EA0009F908F9008952FB7F894609110057091CE
:101EB000110580911205909113052FBF08952F925F
:101EC0003F924F925F926F927F928F929F92AF92CA
:101ED000BF92CF92DF92EF92FF920F931F93CF9317
:101EE000DF93CDB7DEB7A4970FB6F894DEBF0FBE71
:101EF000CDBF9CA38BA37A8F698F0E945709698BF2
:101F00007A8B8B8B9C8B0E94530F4B015C016BA0D7
:101F10007CA028E5620E711CABA1BCA154968C91EB
:101F20000E94DD0EF30191838083BC01990F880B21
:101F3000990B0E946E1E6B017C012DEC3CEC4CE079
:101F400054E40E94C61D87FF0BC011E026E636E66A
:101F500046EE53E4C701B6010E941E1F18160CF08E
:101F600010E00E94530FDC01CB0188199909AA09DE
:101F7000BB09813D9740A105B10510F4112361F221
:101F80000E94530F6D8B7E8B8F8B988F212C312C61
:101F90001A8219822BA13CA1205C3F4F3C8F2B8FD2
:101FA0004BA15CA14C5B5F4F5C874B878BA19CA1D5
:101FB000885B9F4F9E8F8D8FABA1BCA1A45BBF4F51
:101FC000BE87AD87EBA1FCA1E05BFF4FF8A3EF8FCD
:101FD0002BA13CA12C5A3F4F388B2F874BA15CA1E2
:101FE000465A5F4F5C834B830BA11CA1055A1F4FC0
:101FF0008BA19CA1885A9F4F9AA389A3A981BA81DA
:10200000E98DFA8DAE17BF0790F40E94530FDC01E3
:10201000CB012D893E894F89588D821B930BA40BD0
:10202000B50B803D9740A105B10508F4DEC02989B4
:102030003A89B901330F880B990B0E946E1E20E07C
:1020400030E04AE754E40E94CB1D20E030E040E855
:102050005AE30E94231F2B013C01ABA1BCA158965F
:102060002D913D914D915C915B970E94231F4B01F7
:102070005C01B10180E090E00E946C1E6B017C016C
:10208000EBA1FCA1EC5BFF4FFA83E9839B01AC0160
:1020900060817181828193810E94CB1D0E94961F75
:1020A0009B01AC01C501B4010E94231F6B837C839B
:1020B0008D839E83ABA1BCA11C966D937D938D9364
:1020C0009C931F975C962D913D914D915C915F97EC
:1020D000C301B2010E94231F2B013C010BA11CA1D3
:1020E000045B1F4FA7019601F80160817181828115
:1020F00093810E94CB1D0E94961F9B01AC01C301DE
:10210000B2010E94231F6F83788789879A87ABA1CA
:10211000BCA150966D937D938D939C9353971D0115
:10212000B4E52B0E311CA3019201C501B4010E943C
:10213000231FF10120813181428153810E94231F9D
:10214000A70196010E94CB1D6B017C01ABA1BCA134
:102150006D937D938D939C9313972F81388549853B
:102160005A856B817C818D819E810E94231F9B01FA
:10217000AC01EBA1FCA16483758386839783C701BF
:10218000B6010E94CB1DABA1BCA118966D937D93A7
:102190008D939C931B97E981FA81108211821282A0
:1021A0001382D8011D921D921D921C921397F1016A
:1021B0001082118212821382A4960FB6F894DEBFA9
:1021C0000FBECDBFDF91CF911F910F91FF90EF9088
:1021D000DF90CF90BF90AF909F908F907F906F9047
:1021E0005F904F903F902F900895FFEF2F1A3F0A76
:1021F000EBA1FCA184A595A5A6A5B7A580A791A74D
:10220000A2A7B3A784890E94DD0EABA1BCA19596BD
:102210009C938E93949756968C910E94DD0E3C0170
:10222000EBA1FCA197A386A324A135A138872F8316
:10223000B901330F880B990B0E946E1E6B017C0154
:10224000ABA1BCA1D4968D909D90AD90BC90D7973A
:10225000A50194010E94591D20E030E040E85AE3B6
:102260000E94231FA50194010E945A1D9B01AC01ED
:10227000EBA1FCA164AB75AB86AB97ABC701B60114
:102280000E94591D4B015C01ABA1BCA19C966D93B2
:102290007D938D939C939F97B301770C880B990B3B
:1022A0000E946E1E6B017C01EBA1FCA140AC51AC05
:1022B00062AC73ACA30192010E94591D20E030E092
:1022C00040E85AE30E94231FA30192010E945A1D75
:1022D0009B01AC01ABA1BCA1D8966D937D938D936E
:1022E0009C93DB97C701B6010E94591D6B017C01CD
:1022F000EBA1FCA160AB71AB82AB93ABA5019401E8
:10230000C501B4010E94231F9B01AC01AB8DBC8DA4
:102310006D937D938D939C931397EB85FC856081E2
:102320007181828193810E945A1DAB85BC856D931A
:102330007D938D939C931397A7019601C701B601D6
:102340000E94231F9B01AC01ED8DFE8D6083718384
:1023500082839383AD85BE856D917D918D919C9196
:102360000E945A1DED85FE8560837183828393836D
:10237000ABA1BCA198964D905D906D907C909B9781
:10238000A3019201C501B4010E94591DEBA1FCA15A
:1023900020A131A142A153A10E94231FA3019201B8
:1023A0000E945A1D9B01AC01ABA1BCA1DC966D93B0
:1023B0007D938D939C93DF97C701B6010E94231FE5
:1023C0009B01AC01EF8DF8A16083718382839383BD
:1023D000AF85B8896D917D918D919C910E945A1D18
:1023E000EF85F8896083718382839383D8018C9110
:1023F000EB81FC818083A9A1BAA18D919C91EF8191
:10240000F8858E179F0724F4E1E0D801EC9302C011
:10241000D8011C92B1E02B16310429F4F801808117
:10242000AB81BC818C93EB81FC819081D8018C9134
:10243000981709F4E3CDE981FA813196FA83E983AB
:10244000DDCD1F920F920FB60F9211242F933F9361
:102450008F939F93AF93BF93809110059091110537
:10246000A0911205B091130530910F0523E0230FC1
:102470002D3720F40196A11DB11D05C026E8230FBC
:102480000296A11DB11D20930F0580931005909316
:102490001105A0931205B093130580911405909136
:1024A0001505A0911605B09117050196A11DB11D46
:1024B0008093140590931505A0931605B093170506
:1024C000BF91AF919F918F913F912F910F900FBE30
:1024D0000F901F901895CF93DF93CDB7DEB7649719
:1024E0000FB6F894DEBF0FBECDBF789484B582607E
:1024F00084BD84B5816084BD85B5826085BD85B5A8
:10250000816085BD80916E00816080936E00109225
:1025100081008091810082608093810080918100A0
:102520008160809381008091800081608093800031
:102530008091B10084608093B1008091B00081608F
:102540008093B00080917A00846080937A008091BB
:102550007A00826080937A0080917A008160809313
:102560007A0080917A00806880937A001092C1008E
:1025700064E670E080E090E00E94190F80910B010A
:10258000882371F080E090E0A2E0B3E48093290317
:1025900090932A03A0932B03B0932C0388E70DC0DC
:1025A00086E696E6A0E8B3E48093290390932A0395
:1025B000A0932B03B0932C0386EE8093280361E055
:1025C00089E00E94A10E61E089E00E94720E62E043
:1025D00088E00E94A10E61E085E00E94A10E60E00B
:1025E00085E00E94720E62E083E00E94A10EE091FD
:1025F0004504F091460482E08083E0914104F0912B
:1026000042041082E0914304F091440483E3808308
:1026100010924D04E0914904F0914A0486E08083D1
:10262000E0914704F0914804808180618083E091CB
:102630004704F0914804808188608083E0914704DA
:10264000F0914804808180688083E0914704F09194
:10265000480480818F7D808365EB70E085E394E0A2
:102660000E9414056EE175E88BE390E40E94EC0C87
:102670008FE990E00E94A70A84E990E00E94A70AEF
:102680006AE070E080E090E00E94190F409106013E
:1026900060910501809108010E94FD0A5AE0E52E33
:1026A000F12C66ECC62E61E0D62E75E0B72E04E064
:1026B000E8E1AE2EFEEF9F2EF0924F02E0924E0226
:1026C00080913204853029F480910E02882309F428
:1026D00069C080913204843019F0853019F130C01E
:1026E0001092C80110920E02609134048FEF9FEF98
:1026F0000E94F2069093C5018093C401D092C30159
:10270000C092C201B09232040E94E80660E885EAF5
:102710000E94CA0680E10E94DC0662E08EE90E9407
:10272000CA060EC08091C80120910E0290E0049666
:1027300030E0821793073CF080910E02883418F441
:102740008FEF9FEF26C00093320484E00E94DC06E6
:102750008091C8012091C4013091C501232B09F05B
:102760002BC1833408F028C18091C70186FF27C19F
:10277000309133043F3109F422C12091C7012F71F8
:1027800081E090E0231302C080E090E09195819574
:1027900091099093160280931502809115029091F1
:1027A00016028ECF0093320484E00E94DC06A092D1
:1027B000C801EEE4F2E080E090E0DC01A753BE4FF8
:1027C00021912C93019688319105B9F780913304BA
:1027D0008093C701609134048FEF9FEF0E94F2064F
:1027E0009093C5018093C4018091C801292D281BB5
:1027F000209332040E94E8068CE00E94DC0660E030
:1028000085EA0E94CA06809132048330DCF588E2B2
:102810000E94D90687FDF7CF8091320487FF1BC045
:102820009091C80180913204E091C201F091C301FE
:10283000E90FF11DE80FF11D87FDFA951381612F56
:102840008091C4019091C5010E94F2069093C50148
:102850008093C4010DC080913204882329F0813017
:1028600031F41091C50104C01091C40101C01AEAED
:10287000612F80E80E94CA06809132048F5F8093A6
:102880003204C1CF64E670E080E090E00E94190F4E
:1028900031E0E31AF10808F00FCF80913204843060
:1028A00064F483B7817F8C6083BF83B7816083BF0B
:1028B000889583B78E7F83BFF0CF10924F0210921E
:1028C0004E02E091E304F091E40413861586148629
:1028D000DF011B9633961E92EA17FB07E1F7109271
:1028E000E20411E0BE016F5F7F4F8091E30490919D
:1028F000E4040E94920D882309F449C067E0CE01E8
:1029000001960E94800998858913ECCF8091DE049E
:10291000811126C08091E3049091E4040E943E0A54
:10292000BE016F5F7F4F8091E3049091E4040E94A9
:102930001F0A40E064EB8091E3049091E4040E945C
:10294000EB098091E3049091E4040E949809082F18
:102950008091E3049091E4040E943E0A002391F1E7
:102960000091DF04CE0101960E94600D801718F4DB
:102970008091DF0404C0CE0101960E94600D809317
:10298000DF048091E2048F5F8093E204ABCFE0909C
:10299000E204E092470207E112E06801F12CFE1424
:1029A000A1F06F2DC6010E94140E58E0C50ED11C77
:1029B000882359F0F394F3CF81E090E0EACE80E0F1
:1029C00090E0E7CE1093DE04CBCFF12C8FE7A82E5A
:1029D0009CE0B92EFE1409F4A3C0C8010E94600D4A
:1029E0008C3009F499C0BE016F5F7F4FC8010E940F
:1029F000FD0C882309F490C0D8018C91803109F432
:102A00008BC0AD828091E3049091E4040E943E0A61
:102A1000B8018091E3049091E4040E941F0A40E011
:102A20006EE48091E3049091E4040E94EB0940E09D
:102A30006B818091E3049091E4040E94EB0940E0F3
:102A40006C818091E3049091E4040E94EB09F80109
:102A50008081803141F040E06D818091E30490916C
:102A6000E4040E94EB098091E3049091E4040E9445
:102A70003E0AB8018091E3049091E4040E941F0A89
:102A80004091DE0468E48091E3049091E4040E94A4
:102A9000EB0964E170E080E090E00E94190F809102
:102AA000DE04882331F06AE070E080E090E00E946C
:102AB000190F8091E3049091E4040E943E0A8091F2
:102AC000DF048C3008F48CE08093DF048C3021F13B
:102AD000B092DF04C12CD12C8091E20490E0C816A2
:102AE000D906D4F46C2DCE010D960E94140E909050
:102AF000DF04CE010D960E94600D891518F48091B7
:102B0000DF0404C0CE010D960E94600D8093DF04A7
:102B1000FFEFCF1ADF0AE0CFF394085F1F4F5ACFC1
:102B2000F11003C01092480209C081E0809348026E
:102B300026E02F1518F486E08093470210921402C5
:102B40001092130210920F04109231040E94B207E7
:102B500087E094E09093100280930F0288E094E065
:102B600090931202809311028091000111E0109362
:102B70000E048093300410920F04109231040E94CE
:102B8000C10B8823C9F08091020110930E04809339
:102B9000300410920F04109231040E94C10B88235C
:102BA00071F067E571E085E394E00E9438050E94CA
:102BB000A10A80E090E017C000E011E002C002E04E
:102BC00011E065E671E085E394E00E94380560E17C
:102BD00070E0D8018D919C910E94B60A0E94A10AD2
:102BE000F8018081918180936602909367021C8234
:102BF0001B8223E431E03A8329838D8380E18A8735
:102C000082E08B871C86109214021092130210929D
:102C10000F04109231040E94B20787E094E0909371
:102C2000100280930F0288E094E090931202809348
:102C300011021E828B85823010F098E09E83898776
:102C400062E370E080E090E00E94190F6C85CE0195
:102C500001960E94690768EE73E080E090E00E94B0
:102C6000190F60E3CE0101960E947C070BE416E485
:102C7000C8010197F1F760E3CE0101960E947C073D
:102C8000C8010197F1F760E3CE0101960E947C072D
:102C900083E592E00197F1F760E2CE0101960E9490
:102CA0007C076E81606240E0CE0101960E9495072C
:102CB00084E08F8340E06CE0CE0101960E9495078E
:102CC000CE0101960E94DC0C82E0888740E066E03D
:102CD000CE0101960E94950740E062E0CE01019688
:102CE0000E9495078BE39FE10197F1F788E08C87BD
:102CF00060E0CE0101960E9469076CEC70E0CE01A5
:102D000001960E94140522E04EE155E86BE370E461
:102D1000CE0101960E949605CE0101960E94AD0C4F
:102D20006EEB70E0CE0101960E94140560ED77E035
:102D300080E090E00E94190F81E00E94DD0E1816DD
:102D400019062CF4809149028F5F8093490282E03A
:102D50000E94DD0E181619062CF4809149028F5F2F
:102D60008093490260E089E00E94720E61E08EE08B
:102D70000E94A10E61E08EE00E94A10E61E08EE053
:102D80000E94720E61E08EE00E94A10E60E08EE073
:102D90000E94720E60E08EE00E94A10E64EF71E06E
:102DA00080E090E00E94190F04EF16E0C12CD12CB6
:102DB000760180E00E94DD0EDC01B2509D010E9490
:102DC000301DC60ED71EE81EF91E0150110989F7E5
:102DD000C701B6010E946C1E20E030E84EED54E4BD
:102DE0000E94CB1D0E94961F22E538EB4EE55FE363
:102DF0000E94231F60934A0270934B0280934C02FF
:102E000090934D0220E030E044EB52E40E941E1FFC
:102E1000181624F481E080936F0202C010926F02B2
:102E2000809166021C821B8223E431E03A8329836D
:102E30008D8380E18A8782E08B871C86CE01019694
:102E40000E94DC0C88E08C8760E0CE0101960E9435
:102E5000690768E772E085E394E00E9414056DEC71
:102E60007CEC85EB92E40E94EC0C6DE672E085E36D
:102E700094E00E9414056DEC7CEC85EB92E40E94DA
:102E8000EC0C63E672E085E394E00E941405409147
:102E90004A0250914B0260914C0270914D0222E027
:102EA00085E394E00E94960581E692E00E94A70ADD
:102EB00080916F02882309F441C060E572E0CE0181
:102EC00001960E94140585E292E00E94A70A809173
:102ED0000B01882331F069E172E085E394E00E9400
:102EE000140562E172E085E394E00E9414056091AC
:102EF000290370912A0380912B0390912C030E9447
:102F0000EC0C6BE072E085E394E00E9414056091A4
:102F1000280385E394E00E94E50C89E092E00E949A
:102F2000A70A6BEF71E085E394E00E9414056AE95B
:102F300079E989ED9FE30E94EC0C22C06BEE71E011
:102F4000CE0101960E9414058DEB91E00E94A70A24
:102F500080910B01882321F084EB91E00E94A70A65
:102F600064EA71E085E394E00E941405609128030F
:102F700085E394E00E94E50C82EA91E00E94A70AB2
:102F8000CE0101960E94AD0C68E971E0CE01019678
:102F90000E94140580914902811107C089E891E0DF
:102FA0000E94A70A61E871E01AC066E771E085E354
:102FB00094E00E9438056091490285E394E00E9404
:102FC000E50C60E871E085E394E00E9438056091CB
:102FD0004902CE0101960E94E50C6BE771E0CE013B
:102FE00001960E94140560ED77E080E090E00E9479
:102FF000190F80914802882339F163E771E085E376
:1030000094E00E9414056091470285E394E00E94D9
:10301000E50C8AE691E00E94A70ACE0101960E9483
:10302000DC0C6FE571E0CE0101960E941405609101
:103030004702CE0101960E94E50CCE0101960E9446
:10304000AD0C62E571E01AC08FE391E00E94A70A1F
:10305000CE0101960E94DC0C64E371E0CE01019682
:103060000E94140560914702CE0101960E94E50C72
:10307000CE0101960E94AD0C67E271E0CE0101968F
:103080000E94140560ED77E080E090E00E94190F47
:10309000CE0101960E94DC0C6CE171E0CE0101963C
:1030A0000E941405CE0101960E94AD0C60E171E012
:1030B000CE0101960E94140581E091E00E94A70ACA
:1030C0006BEF70E085E394E00E94140560910801C5
:1030D00085E394E00E94E50C64EF70E085E394E002
:1030E0000E94140580910501813031F46DEE70E08D
:1030F00085E394E00E94140580910501823031F44B
:1031000066EE70E085E394E00E941405809105016D
:10311000833031F46FED70E085E394E00E94140594
:1031200065ED70E085E394E00E9414056AE070E0CC
:1031300080910601909107010E94B60A0E94A10A9F
:103140000E94860A64E170E080E090E00E94190F1E
:1031500087E994E090930F0180930E0180916900BC
:10316000837F886080936900E99A109262021092CE
:103170006302109264021092650281E090E09093E5
:10318000E3028093E2024DEC5CEC65EB72E4409369
:10319000E8025093E9026093EA027093EB0280E048
:1031A00090E0A0E0B4E48093040390930503A0931F
:1031B0000603B093070322E030E0309387022093A8
:1031C000860240938C0250938D0260938E0270931E
:1031D0008F028093A8029093A902A093AA02B093B1
:1031E000AB0220916F02222309F444C0009129030D
:1031F00010912A0320912B0330912C031092E102AD
:103200001092E0020093E4021093E5022093E6029C
:103210003093E7024AE959E969ED7FE34093EC0214
:103220005093ED026093EE027093EF0280930003DF
:1032300090930103A0930203B093030310928502BD
:1032400010928402009388021093890220938A02CC
:1032500030938B02409390025093910260939202BC
:10326000709393028093A4029093A502A093A60268
:10327000B093A70236EE232E48E7342E0E94530F58
:1032800080910B01882379F020E030E042E053E4A4
:103290002093290330932A0340932B0350932C034C
:1032A000309228030EC086E696E6A0E8B3E4809349
:1032B000290390932A03A0932B03B0932C0320920D
:1032C00028038091290390912A03A0912B03B091A8
:1032D0002C031092E1021092E0028093E40290939A
:1032E000E502A093E602B093E7022AE939E949ED45
:1032F0005FE32093EC023093ED024093EE02509393
:10330000EF0220E030E040E054E4209300033093EB
:10331000010340930203509303031092850210921D
:1033200084028093880290938902A0938A02B093CA
:103330008B028AE999E9A9EDBFE38093900290930B
:103340009102A0939202B09393022093A40230932F
:10335000A5024093A6025093A702E2E4F5E084910F
:10336000EAE1F5E00491E6E0F5E01491112371F053
:1033700081110E94490EE12FF0E0EE0FFF1FEC508B
:10338000FB4FA591B4918C91082311F461E001C029
:1033900060E085E00E94720E85E394E00E942E03B7
:1033A000892B09F445C185E394E00E940C03E82FC2
:1033B00080ED8E0F8A30A0F42091690230916A026C
:1033C0004AE0429FC001439F900D1124C0978E0F89
:1033D000911DE7FD9A9590936A02809369020EC150
:1033E000EC3249F480916802863408F003C18F5FA3
:1033F00080936802FFC0E1320CF4FAC08E2FEE0F0A
:10340000990BAA0BBB0BFC01E156F109E631F10562
:1034100008F081C0EC5CFF4F0C942A1D809169027A
:1034200090916A02009739F080930801409106015B
:10343000609105011EC080916902843031F08830AE
:1034400031F0893031F060E005C061E003C062E036
:1034500001C063E0862F90E090936A028093690236
:10346000662309F45AC060930501409106018091DA
:1034700008010E94FD0A51C08091690290916A0280
:10348000019711F481E001C082E080930A0145C0F8
:10349000809169028093090140C040916902809146
:1034A0006A02409306018093070160910501DFCF16
:1034B0008091690290916A02009779F181309105BB
:1034C00019F410920B0129C0029739F581E080931D
:1034D0000B0123C081E02091690230916A02232B05
:1034E00009F480E08093040118C061EA72E085E38A
:1034F00094E00E94140522E047E656E66AEE71E485
:1035000085E394E00E9496056FE972E085E394E01C
:103510000E94140502C00E94860A6DE972E085E3EC
:1035200094E00E941405609108016F71605C85E36E
:1035300094E00E940D056AE972E085E394E00E9440
:103540001405809108018F716AE070E090E00E949C
:10355000B60A67E972E085E394E00E9414056AE028
:1035600070E080910601909107010E94B60A63E91C
:1035700072E085E394E00E9414058091050181309A
:1035800039F0823041F0833049F080E090E008C0AB
:1035900081EB91E005C084E693E002C083E993E00B
:1035A0006AE070E00E94B60A6EE872E085E394E09B
:1035B0000E9414056BE872E085E394E00E94140514
:1035C000809104016AE070E090E00E94B60A65E82C
:1035D00072E085E394E00E94140580910B016AE09B
:1035E00070E090E00E94B60A83E892E00E94A70A89
:1035F0001092680210926A021092690266E871E005
:1036000085E394E00E94380560910A0185E394E027
:103610000E94E50C6AE871E085E394E00E943805B9
:103620006091090185E394E00E94E50C0E94A10AE3
:1036300080910A018130C9F50E94DD0E1816190625
:103640000CF06EC080916F02882309F46CC0609109
:10365000090170E08CEC92E00E945F0F20E030E006
:1036600048EC52E46091CC027091CD028091CE0280
:103670009091CF020E94231F0E943D1E70936E0204
:1036800060936D0263EA71E085E394E00E9438057F
:1036900040916D0250916E0260E070E02AE085E397
:1036A00094E00E944D050E94A10A80910A01823097
:1036B000B9F50E94DD0E1816190694F580916F0277
:1036C000882339F06091090170E080E792E00E9460
:1036D0005F0F20E030E048EC52E46091700270919E
:1036E000710280917202909173020E94231F0E94C6
:1036F0003D1E70936C0260936B026BEA71E085E390
:1037000094E00E94380540916B0250916C0260E099
:1037100070E02AE085E394E00E944D050E94A10A32
:103720000E94D503ABCD8CEC92E00E9457096B014F
:103730007C0108EC15E08091E2020E94DD0E90937E
:10374000F3028093F202BC01990F880B990B0E943F
:103750006E1E4B015C014090040350900503609085
:10376000060370900703A30192010E94591D20E0F7
:1037700030E040E85AE30E94231FA30192010E9417
:103780005A1D9B01AC016093040370930503809361
:10379000060390930703C501B4010E94591D60936D
:1037A000FC027093FD028093FE029093FF029B0146
:1037B000AC010E94231F6093140370931503809340
:1037C0001603909317032091180330911903409129
:1037D0001A0350911B030E945A1D609318037093A3
:1037E000190380931A0390931B030150110909F0E8
:1037F000A2CF20E030E049EB54E40E94CB1D0E94B0
:10380000961F4B015C01B601DD0C880B990B0E94E1
:103810006E1E20E030E04AE754E40E94CB1D20E019
:1038200030E040E85AE30E94231F2091E8023091E3
:10383000E9024091EA025091EB020E94231FA50188
:1038400094010E94231F6B017C016093DC02709342
:10385000DD028093DE029093DF0210921803109233
:10386000190310921A0310921B036091280370E051
:1038700080E090E00E946E1EA70196010E94231F27
:1038800020E030E048EC52E4F5CE1092380410927B
:10389000370488EE93E0A0E0B0E080933904909381
:1038A0003A04A0933B04B0933C042FE131E0309301
:1038B00036042093350425EC30E030934204209305
:1038C000410424EC30E0309344042093430420EC82
:1038D00030E0309346042093450421EC30E03093EF
:1038E00048042093470422EC30E030934A042093AC
:1038F000490426EC30E030934C0420934B041092A2
:103900004E0410924F0410925004109251041092E1
:10391000D5041092D4048093D6049093D704A09336
:10392000D804B093D90481E391E09093D3048093B9
:10393000D204109206051092050583E491E090935D
:103940000405809303051092070510920C05109250
:103950000D0510920E0560E084E00E94A10EE6E1E4
:10396000F5E0E491E093F504E2E0F5E0E491F0E0C5
:10397000EE0FFF1FEC50FB4F859194919093F7044D
:103980008093F60410920005109202051092010532
:10399000E0E0F5E088EF94E012928E179F07E1F7E0
:1039A00089E094E09093F0048093EF0485EF94E035
:1039B0009093E4048093E3041092E2041092DE04F6
:1039C00089E08093DF0481E08093E0048093E10448
:1039D0000895A1E21A2EAA1BBB1BFD010DC0AA1F50
:1039E000BB1FEE1FFF1FA217B307E407F50720F068
:1039F000A21BB30BE40BF50B661F771F881F991FE3
:103A00001A9469F760957095809590959B01AC012B
:103A1000BD01CF010895052E97FB1EF400940E946E
:103A2000221D57FD07D00E94E91C07FC03D04EF46D
:103A30000C94221D50954095309521953F4F4F4F46
:103A40005F4F089590958095709561957F4F8F4F4A
:103A50009F4F0895EE0FFF1F0590F491E02D0994FC
:103A60000E94381D332312F48A1B9B0B0C94491DB2
:103A7000A29FB001B39FC001A39F700D811D1124AF
:103A8000911DB29F700D811D1124911D08950E94FA
:103A9000381DB7FF0895821B930B08950E94381DAF
:103AA000A59F900DB49F900DA49F800D911D112492
:103AB00008955058BB27AA270E94711D0C94E41E3C
:103AC0000E94D61E38F00E94DD1E20F039F49F3F80
:103AD00019F426F40C94D31E0EF4E095E7FB0C9435
:103AE000CD1EE92F0E94F51E58F3BA17620773071F
:103AF0008407950720F079F4A6F50C94171F0EF4AF
:103B0000E0950B2EBA2FA02D0B01B90190010C01ED
:103B1000CA01A0011124FF27591B99F0593F50F405
:103B2000503E68F11A16F040A22F232F342F44275D
:103B3000585FF3CF469537952795A795F040539555
:103B4000C9F77EF41F16BA0B620B730B840BBAF025
:103B50009150A1F0FF0FBB1F661F771F881FC2F790
:103B60000EC0BA0F621F731F841F48F487957795A4
:103B70006795B795F7959E3F08F0B0CF9395880F5E
:103B800008F09927EE0F9795879508950E94A91E32
:103B900008F481E008950E94DF1D0C94E41E0E9449
:103BA000DD1E58F00E94D61E40F029F45F3F29F038
:103BB0000C94CD1E51110C94181F0C94D31E0E940E
:103BC000F51E68F39923B1F3552391F3951B550B1B
:103BD000BB27AA2762177307840738F09F5F5F4FE0
:103BE000220F331F441FAA1FA9F335D00E2E3AF01F
:103BF000E0E832D091505040E695001CCAF72BD037
:103C0000FE2F29D0660F771F881FBB1F2617370787
:103C10004807AB07B0E809F0BB0B802DBF01FF27B9
:103C200093585F4F3AF09E3F510578F00C94CD1EAB
:103C30000C94181F5F3FE4F3983ED4F38695779574
:103C40006795B795F7959F5FC9F7880F911D969572
:103C5000879597F90895E1E0660F771F881FBB1FCE
:103C6000621773078407BA0720F0621B730B840B7B
:103C7000BA0BEE1F88F7E09508950E94FD1E88F0AC
:103C80009F5798F0B92F9927B751B0F0E1F0660F20
:103C9000771F881F991F1AF0BA95C9F714C0B13061
:103CA00091F00E94171FB1E008950C94171F672F21
:103CB000782F8827B85F39F0B93FCCF38695779590
:103CC0006795B395D9F73EF4909580957095619579
:103CD0007F4F8F4F9F4F0895E89409C097FB3EF4A4
:103CE00090958095709561957F4F8F4F9F4F992349
:103CF000A9F0F92F96E9BB279395F69587957795C7
:103D00006795B795F111F8CFFAF4BB0F11F460FF86
:103D10001BC06F5F7F4F8F4F9F4F16C0882311F0DE
:103D200096E911C0772321F09EE8872F762F05C0F2
:103D3000662371F096E8862F70E060E02AF09A958D
:103D4000660F771F881FDAF7880F9695879597F982
:103D50000895990F0008550FAA0BE0E8FEEF16161C
:103D60001706E807F907C0F012161306E407F5076F
:103D700098F0621B730B840B950B39F40A2661F0E3
:103D8000232B242B252B21F408950A2609F4A14086
:103D9000A6958FEF811D811D089597F99F6780E893
:103DA00070E060E008959FEF80EC089500240A948D
:103DB0001616170618060906089500240A94121606
:103DC0001306140605060895092E0394000C11F439
:103DD000882352F0BB0F40F4BF2B11F460FF04C0E6
:103DE0006F5F7F4F8F4F9F4F089557FD9058440F3F
:103DF000551F59F05F3F71F04795880F97FB991F4A
:103E000061F09F3F79F08795089512161306140606
:103E1000551FF2CF4695F1DF08C016161706180693
:103E2000991FF1CF86957105610508940895E8946E
:103E3000BB2766277727CB0197F908950E94A91E13
:103E400008F48FEF08950E94361F0C94E41E0E9420
:103E5000D61E38F00E94DD1E20F0952311F00C9440
:103E6000CD1E0C94D31E11240C94181F0E94F51E15
:103E700070F3959FC1F3950F50E0551F629FF001BD
:103E8000729FBB27F00DB11D639FAA27F00DB11DD6
:103E9000AA1F649F6627B00DA11D661F829F22275F
:103EA000B00DA11D621F739FB00DA11D621F839FE6
:103EB000A00D611D221F749F3327A00D611D231FBC
:103EC000849F600D211D822F762F6A2F11249F570A
:103ED00050409AF0F1F088234AF0EE0FFF1FBB1F0D
:103EE000661F771F881F91505040A9F79E3F5105CC
:103EF00080F00C94CD1E0C94181F5F3FE4F3983EA5
:103F0000D4F3869577956795B795F795E7959F5F75
:103F1000C1F7FE2B880F911D9695879597F9089507
:103F200019F416F40C94D31E0C94DB1F0E94FD1E92
:103F3000B8F39923C9F3B6F39F57550B87FF0E9437
:103F4000E91F0024A0E640EA900180585695979515
:103F500028F4805C660F771F881F20F0261737072C
:103F6000480730F4621B730B840B202931294A2B3C
:103F7000A69517940794202531254A2758F7660FF0
:103F8000771F881F20F026173707480730F4620B89
:103F9000730B840B200D311D411DA09581F7B901D4
:103FA000842F9158880F9695879508950E94A91E91
:103FB000880B990B08959F3F31F0915020F487951D
:103FC00077956795B795880F911D9695879597F981
:103FD000089591505040660F771F881FD2F70895BB
:0E3FE00081E090E0F8940C94F51FF894FFCF68
:103FEE0027003F000101D200050A0101D202D202D0
:103FFE0000004000140054002B565A0000000066CA
:10400E0003D302FD02B3032E030C032003000000B2
:10401E000062043504920409042D0419040A0400F4
:10402E00000000AC07D3029204910400000000953A
:10403E0004D302920491044C4344206E6F742066A4
:10404E006F756E64004C434420666F756E64206914
:10405E0032632030780044657465637465642000B3
:10406E0020435427730063742C002C6E6F5F6F66B1
:10407E005F68616C665F776176656C656E677468A4
:10408E00732C00706F776572312C00706F776572CC
:10409E00322C006E616E00696E66006F7666000DE2
:0240AE000A0006
:00000001FF
